{
  "contractName": "VoteFactory",
  "abi": [
    {
      "constant": true,
      "inputs": [
        {
          "name": "",
          "type": "uint256"
        }
      ],
      "name": "votes",
      "outputs": [
        {
          "name": "question",
          "type": "string"
        },
        {
          "name": "state",
          "type": "uint8"
        }
      ],
      "payable": false,
      "stateMutability": "view",
      "type": "function"
    },
    {
      "constant": true,
      "inputs": [],
      "name": "owner",
      "outputs": [
        {
          "name": "",
          "type": "address"
        }
      ],
      "payable": false,
      "stateMutability": "view",
      "type": "function"
    },
    {
      "constant": false,
      "inputs": [
        {
          "name": "_newOwner",
          "type": "address"
        }
      ],
      "name": "transferOwnership",
      "outputs": [],
      "payable": false,
      "stateMutability": "nonpayable",
      "type": "function"
    },
    {
      "anonymous": false,
      "inputs": [
        {
          "indexed": true,
          "name": "previousOwner",
          "type": "address"
        },
        {
          "indexed": true,
          "name": "newOwner",
          "type": "address"
        }
      ],
      "name": "OwnershipTransferred",
      "type": "event"
    },
    {
      "constant": false,
      "inputs": [
        {
          "name": "_question",
          "type": "string"
        }
      ],
      "name": "createVote",
      "outputs": [],
      "payable": false,
      "stateMutability": "nonpayable",
      "type": "function"
    },
    {
      "constant": false,
      "inputs": [
        {
          "name": "_voteId",
          "type": "uint256"
        },
        {
          "name": "_question",
          "type": "string"
        }
      ],
      "name": "setQuestion",
      "outputs": [],
      "payable": false,
      "stateMutability": "nonpayable",
      "type": "function"
    },
    {
      "constant": false,
      "inputs": [
        {
          "name": "_voteId",
          "type": "uint256"
        },
        {
          "name": "_answer",
          "type": "string"
        }
      ],
      "name": "addAnswer",
      "outputs": [],
      "payable": false,
      "stateMutability": "nonpayable",
      "type": "function"
    },
    {
      "constant": false,
      "inputs": [
        {
          "name": "_voteId",
          "type": "uint256"
        },
        {
          "name": "_answerId",
          "type": "uint256"
        },
        {
          "name": "_answer",
          "type": "string"
        }
      ],
      "name": "setAnswer",
      "outputs": [],
      "payable": false,
      "stateMutability": "nonpayable",
      "type": "function"
    },
    {
      "constant": false,
      "inputs": [
        {
          "name": "_voteId",
          "type": "uint256"
        }
      ],
      "name": "startVote",
      "outputs": [],
      "payable": false,
      "stateMutability": "nonpayable",
      "type": "function"
    },
    {
      "constant": false,
      "inputs": [
        {
          "name": "_voteId",
          "type": "uint256"
        }
      ],
      "name": "stopVote",
      "outputs": [],
      "payable": false,
      "stateMutability": "nonpayable",
      "type": "function"
    },
    {
      "constant": false,
      "inputs": [
        {
          "name": "_voteId",
          "type": "uint256"
        },
        {
          "name": "_answerId",
          "type": "uint256"
        }
      ],
      "name": "cast",
      "outputs": [],
      "payable": false,
      "stateMutability": "nonpayable",
      "type": "function"
    },
    {
      "constant": true,
      "inputs": [
        {
          "name": "_voteId",
          "type": "uint256"
        }
      ],
      "name": "results",
      "outputs": [
        {
          "name": "",
          "type": "string"
        }
      ],
      "payable": false,
      "stateMutability": "view",
      "type": "function"
    },
    {
      "constant": true,
      "inputs": [
        {
          "name": "_voteId",
          "type": "uint256"
        }
      ],
      "name": "voteQuestion",
      "outputs": [
        {
          "name": "",
          "type": "string"
        }
      ],
      "payable": false,
      "stateMutability": "view",
      "type": "function"
    },
    {
      "constant": true,
      "inputs": [
        {
          "name": "_voteId",
          "type": "uint256"
        },
        {
          "name": "_answerId",
          "type": "uint256"
        }
      ],
      "name": "voteAnswer",
      "outputs": [
        {
          "name": "",
          "type": "string"
        }
      ],
      "payable": false,
      "stateMutability": "view",
      "type": "function"
    },
    {
      "constant": true,
      "inputs": [
        {
          "name": "_voteId",
          "type": "uint256"
        }
      ],
      "name": "voteState",
      "outputs": [
        {
          "name": "",
          "type": "uint8"
        }
      ],
      "payable": false,
      "stateMutability": "view",
      "type": "function"
    },
    {
      "constant": true,
      "inputs": [],
      "name": "contractOwner",
      "outputs": [
        {
          "name": "",
          "type": "address"
        }
      ],
      "payable": false,
      "stateMutability": "view",
      "type": "function"
    },
    {
      "constant": true,
      "inputs": [
        {
          "name": "_voter",
          "type": "address"
        },
        {
          "name": "_voteId",
          "type": "uint256"
        }
      ],
      "name": "voterAnswerId",
      "outputs": [
        {
          "name": "",
          "type": "uint256"
        }
      ],
      "payable": false,
      "stateMutability": "view",
      "type": "function"
    },
    {
      "constant": true,
      "inputs": [
        {
          "name": "_voteId",
          "type": "uint256"
        },
        {
          "name": "_voterId",
          "type": "uint256"
        }
      ],
      "name": "voterAddress",
      "outputs": [
        {
          "name": "",
          "type": "address"
        }
      ],
      "payable": false,
      "stateMutability": "view",
      "type": "function"
    }
  ],
  "bytecode": "0x6080604052336000806101000a81548173ffffffffffffffffffffffffffffffffffffffff021916908373ffffffffffffffffffffffffffffffffffffffff160217905550611d76806100536000396000f3006080604052600436106100f1576000357c0100000000000000000000000000000000000000000000000000000000900463ffffffff16806313292a02146100f65780631b0c27da1461015f5780633f2205241461020557806343ab92b7146102325780635df813301461025f5780636b7ea1251461031a5780637491995a146103ca57806384033fc71461043d578063857b2b5b146104b05780638da5cb5b146105115780638edeacc0146105685780639f85b0c81461060e578063bd28f8f114610685578063ce606ee014610702578063dd2d9cb214610759578063f2fde38b14610790578063f3f85ad3146107d3575b600080fd5b34801561010257600080fd5b5061015d600480360381019080803590602001908201803590602001908080601f0160208091040260200160405190810160405280939291908181526020018383808284378201915050505050509192919290505050610822565b005b34801561016b57600080fd5b5061018a600480360381019080803590602001909291905050506109c0565b6040518080602001828103825283818151815260200191508051906020019080838360005b838110156101ca5780820151818401526020810190506101af565b50505050905090810190601f1680156101f75780820380516001836020036101000a031916815260200191505b509250505060405180910390f35b34801561021157600080fd5b5061023060048036038101908080359060200190929190505050610b1d565b005b34801561023e57600080fd5b5061025d60048036038101908080359060200190929190505050610c55565b005b34801561026b57600080fd5b5061028a60048036038101908080359060200190929190505050610d5d565b604051808060200183600281111561029e57fe5b60ff168152602001828103825284818151815260200191508051906020019080838360005b838110156102de5780820151818401526020810190506102c3565b50505050905090810190601f16801561030b5780820380516001836020036101000a031916815260200191505b50935050505060405180910390f35b34801561032657600080fd5b5061034f6004803603810190808035906020019092919080359060200190929190505050610e35565b6040518080602001828103825283818151815260200191508051906020019080838360005b8381101561038f578082015181840152602081019050610374565b50505050905090810190601f1680156103bc5780820380516001836020036101000a031916815260200191505b509250505060405180910390f35b3480156103d657600080fd5b5061043b60048036038101908080359060200190929190803590602001908201803590602001908080601f0160208091040260200160405190810160405280939291908181526020018383808284378201915050505050509192919290505050610f0f565b005b34801561044957600080fd5b506104ae60048036038101908080359060200190929190803590602001908201803590602001908080601f01602080910402602001604051908101604052809392919081815260200183838082843782019150505050505091929192905050506110a0565b005b3480156104bc57600080fd5b506104fb600480360381019080803573ffffffffffffffffffffffffffffffffffffffff1690602001909291908035906020019092919050505061119c565b6040518082815260200191505060405180910390f35b34801561051d57600080fd5b50610526611204565b604051808273ffffffffffffffffffffffffffffffffffffffff1673ffffffffffffffffffffffffffffffffffffffff16815260200191505060405180910390f35b34801561057457600080fd5b5061059360048036038101908080359060200190929190505050611229565b6040518080602001828103825283818151815260200191508051906020019080838360005b838110156105d35780820151818401526020810190506105b8565b50505050905090810190601f1680156106005780820380516001836020036101000a031916815260200191505b509250505060405180910390f35b34801561061a57600080fd5b5061064360048036038101908080359060200190929190803590602001909291905050506112eb565b604051808273ffffffffffffffffffffffffffffffffffffffff1673ffffffffffffffffffffffffffffffffffffffff16815260200191505060405180910390f35b34801561069157600080fd5b506107006004803603810190808035906020019092919080359060200190929190803590602001908201803590602001908080601f016020809104026020016040519081016040528093929190818152602001838380828437820191505050505050919291929050505061134d565b005b34801561070e57600080fd5b50610717611461565b604051808273ffffffffffffffffffffffffffffffffffffffff1673ffffffffffffffffffffffffffffffffffffffff16815260200191505060405180910390f35b34801561076557600080fd5b5061078e600480360381019080803590602001909291908035906020019092919050505061148a565b005b34801561079c57600080fd5b506107d1600480360381019080803573ffffffffffffffffffffffffffffffffffffffff169060200190929190505050611699565b005b3480156107df57600080fd5b506107fe60048036038101908080359060200190929190505050611700565b6040518082600281111561080e57fe5b60ff16815260200191505060405180910390f35b6000600180608060405190810160405280858152602001600060405190808252806020026020018201604052801561086e57816020015b60608152602001906001900390816108595790505b5081526020016000600281111561088157fe5b815260200160006040519080825280602002602001820160405280156108b65781602001602082028038833980820191505090505b50815250908060018154018082558091505090600182039060005260206000209060050201600090919290919091506000820151816000019080519060200190610901929190611a84565b50602082015181600101908051906020019061091e929190611b04565b5060408201518160020160006101000a81548160ff0219169083600281111561094357fe5b02179055506060820151816003019080519060200190610964929190611b64565b505050039050336002600083815260200190815260200160002060006101000a81548173ffffffffffffffffffffffffffffffffffffffff021916908373ffffffffffffffffffffffffffffffffffffffff1602179055505050565b60606000806109ce84611737565b80925081935050506001811115610a4357606060405190810160405280603e81526020017f497420697320696d706f737369626c6520746f2064657465726d696e652c206281526020017f656361757365206d756c7469706c6520766f74696e67206c65616465727300008152509250610b16565b600184815481101515610a5257fe5b906000526020600020906005020160010182815481101515610a7057fe5b906000526020600020018054600181600116156101000203166002900480601f016020809104026020016040519081016040528092919081815260200182805460018160011615610100020316600290048015610b0e5780601f10610ae357610100808354040283529160200191610b0e565b820191906000526020600020905b815481529060010190602001808311610af157829003601f168201915b505050505092505b5050919050565b803373ffffffffffffffffffffffffffffffffffffffff166002600083815260200190815260200160002060009054906101000a900473ffffffffffffffffffffffffffffffffffffffff1673ffffffffffffffffffffffffffffffffffffffff16141515610b8b57600080fd5b8160006002811115610b9957fe5b600182815481101515610ba857fe5b906000526020600020906005020160020160009054906101000a900460ff166002811115610bd257fe5b141515610bde57600080fd5b60018084815481101515610bee57fe5b906000526020600020906005020160010180549050111515610c0f57600080fd5b60018084815481101515610c1f57fe5b906000526020600020906005020160020160006101000a81548160ff02191690836002811115610c4b57fe5b0217905550505050565b803373ffffffffffffffffffffffffffffffffffffffff166002600083815260200190815260200160002060009054906101000a900473ffffffffffffffffffffffffffffffffffffffff1673ffffffffffffffffffffffffffffffffffffffff16141515610cc357600080fd5b8160016002811115610cd157fe5b600182815481101515610ce057fe5b906000526020600020906005020160020160009054906101000a900460ff166002811115610d0a57fe5b141515610d1657600080fd5b6002600184815481101515610d2757fe5b906000526020600020906005020160020160006101000a81548160ff02191690836002811115610d5357fe5b0217905550505050565b600181815481101515610d6c57fe5b9060005260206000209060050201600091509050806000018054600181600116156101000203166002900480601f016020809104026020016040519081016040528092919081815260200182805460018160011615610100020316600290048015610e185780601f10610ded57610100808354040283529160200191610e18565b820191906000526020600020905b815481529060010190602001808311610dfb57829003601f168201915b5050505050908060020160009054906101000a900460ff16905082565b6060600183815481101515610e4657fe5b906000526020600020906005020160010182815481101515610e6457fe5b906000526020600020018054600181600116156101000203166002900480601f016020809104026020016040519081016040528092919081815260200182805460018160011615610100020316600290048015610f025780601f10610ed757610100808354040283529160200191610f02565b820191906000526020600020905b815481529060010190602001808311610ee557829003601f168201915b5050505050905092915050565b813373ffffffffffffffffffffffffffffffffffffffff166002600083815260200190815260200160002060009054906101000a900473ffffffffffffffffffffffffffffffffffffffff1673ffffffffffffffffffffffffffffffffffffffff16141515610f7d57600080fd5b8260006002811115610f8b57fe5b600182815481101515610f9a57fe5b906000526020600020906005020160020160009054906101000a900460ff166002811115610fc457fe5b141515610fd057600080fd5b3373ffffffffffffffffffffffffffffffffffffffff166002600086815260200190815260200160002060009054906101000a900473ffffffffffffffffffffffffffffffffffffffff1673ffffffffffffffffffffffffffffffffffffffff1614151561103d57600080fd5b60018481548110151561104c57fe5b9060005260206000209060050201600101839080600181540180825580915050906001820390600052602060002001600090919290919091509080519060200190611098929190611bee565b505050505050565b813373ffffffffffffffffffffffffffffffffffffffff166002600083815260200190815260200160002060009054906101000a900473ffffffffffffffffffffffffffffffffffffffff1673ffffffffffffffffffffffffffffffffffffffff1614151561110e57600080fd5b826000600281111561111c57fe5b60018281548110151561112b57fe5b906000526020600020906005020160020160009054906101000a900460ff16600281111561115557fe5b14151561116157600080fd5b8260018581548110151561117157fe5b90600052602060002090600502016000019080519060200190611195929190611bee565b5050505050565b60006001828154811015156111ad57fe5b906000526020600020906005020160040160008473ffffffffffffffffffffffffffffffffffffffff1673ffffffffffffffffffffffffffffffffffffffff16815260200190815260200160002054905092915050565b6000809054906101000a900473ffffffffffffffffffffffffffffffffffffffff1681565b606060018281548110151561123a57fe5b90600052602060002090600502016000018054600181600116156101000203166002900480601f0160208091040260200160405190810160405280929190818152602001828054600181600116156101000203166002900480156112df5780601f106112b4576101008083540402835291602001916112df565b820191906000526020600020905b8154815290600101906020018083116112c257829003601f168201915b50505050509050919050565b60006001838154811015156112fc57fe5b90600052602060002090600502016003018281548110151561131a57fe5b9060005260206000200160009054906101000a900473ffffffffffffffffffffffffffffffffffffffff16905092915050565b823373ffffffffffffffffffffffffffffffffffffffff166002600083815260200190815260200160002060009054906101000a900473ffffffffffffffffffffffffffffffffffffffff1673ffffffffffffffffffffffffffffffffffffffff161415156113bb57600080fd5b83600060028111156113c957fe5b6001828154811015156113d857fe5b906000526020600020906005020160020160009054906101000a900460ff16600281111561140257fe5b14151561140e57600080fd5b8260018681548110151561141e57fe5b90600052602060002090600502016001018581548110151561143c57fe5b906000526020600020019080519060200190611459929190611bee565b505050505050565b60008060009054906101000a900473ffffffffffffffffffffffffffffffffffffffff16905090565b6000826001600281111561149a57fe5b6001828154811015156114a957fe5b906000526020600020906005020160020160009054906101000a900460ff1660028111156114d357fe5b1415156114df57600080fd5b600091505b6001848154811015156114f357fe5b9060005260206000209060050201600301805490508210156115ac573373ffffffffffffffffffffffffffffffffffffffff1660018581548110151561153557fe5b90600052602060002090600502016003018381548110151561155357fe5b9060005260206000200160009054906101000a900473ffffffffffffffffffffffffffffffffffffffff1673ffffffffffffffffffffffffffffffffffffffff16141561159f57611693565b81806001019250506114e4565b826001858154811015156115bc57fe5b906000526020600020906005020160040160003373ffffffffffffffffffffffffffffffffffffffff1673ffffffffffffffffffffffffffffffffffffffff1681526020019081526020016000208190555060018481548110151561161d57fe5b90600052602060002090600502016003013390806001815401808255809150509060018203906000526020600020016000909192909190916101000a81548173ffffffffffffffffffffffffffffffffffffffff021916908373ffffffffffffffffffffffffffffffffffffffff160217905550505b50505050565b6000809054906101000a900473ffffffffffffffffffffffffffffffffffffffff1673ffffffffffffffffffffffffffffffffffffffff163373ffffffffffffffffffffffffffffffffffffffff161415156116f457600080fd5b6116fd8161198a565b50565b600060018281548110151561171157fe5b906000526020600020906005020160020160009054906101000a900460ff169050919050565b600080606060008060008060018881548110151561175157fe5b90600052602060002090600502016003018054905011151561177257600080fd5b60018781548110151561178157fe5b9060005260206000209060050201600301805490506040519080825280602002602001820160405280156117c45781602001602082028038833980820191505090505b509350600092505b6001878154811015156117db57fe5b9060005260206000209060050201600301805490508310156118db578360018881548110151561180757fe5b9060005260206000209060050201600401600060018a81548110151561182957fe5b90600052602060002090600502016003018681548110151561184757fe5b9060005260206000200160009054906101000a900473ffffffffffffffffffffffffffffffffffffffff1673ffffffffffffffffffffffffffffffffffffffff1673ffffffffffffffffffffffffffffffffffffffff168152602001908152602001600020548151811015156118b957fe5b90602001906020020180518091906001018152505082806001019350506117cc565b6000915060009050600092505b835183101561197b5783828151811015156118ff57fe5b90602001906020020151848481518110151561191757fe5b90602001906020020151111561192f57829150600090505b838281518110151561193d57fe5b90602001906020020151848481518110151561195557fe5b90602001906020020151141561196e5780806001019150505b82806001019350506118e8565b81819550955050505050915091565b600073ffffffffffffffffffffffffffffffffffffffff168173ffffffffffffffffffffffffffffffffffffffff16141515156119c657600080fd5b8073ffffffffffffffffffffffffffffffffffffffff166000809054906101000a900473ffffffffffffffffffffffffffffffffffffffff1673ffffffffffffffffffffffffffffffffffffffff167f8be0079c531659141344cd1fd0a4f28419497f9722a3daafe3b4186f6b6457e060405160405180910390a3806000806101000a81548173ffffffffffffffffffffffffffffffffffffffff021916908373ffffffffffffffffffffffffffffffffffffffff16021790555050565b828054600181600116156101000203166002900490600052602060002090601f016020900481019282601f10611ac557805160ff1916838001178555611af3565b82800160010185558215611af3579182015b82811115611af2578251825591602001919060010190611ad7565b5b509050611b009190611c6e565b5090565b828054828255906000526020600020908101928215611b53579160200282015b82811115611b52578251829080519060200190611b42929190611a84565b5091602001919060010190611b24565b5b509050611b609190611c93565b5090565b828054828255906000526020600020908101928215611bdd579160200282015b82811115611bdc5782518260006101000a81548173ffffffffffffffffffffffffffffffffffffffff021916908373ffffffffffffffffffffffffffffffffffffffff16021790555091602001919060010190611b84565b5b509050611bea9190611cbf565b5090565b828054600181600116156101000203166002900490600052602060002090601f016020900481019282601f10611c2f57805160ff1916838001178555611c5d565b82800160010185558215611c5d579182015b82811115611c5c578251825591602001919060010190611c41565b5b509050611c6a9190611c6e565b5090565b611c9091905b80821115611c8c576000816000905550600101611c74565b5090565b90565b611cbc91905b80821115611cb85760008181611caf9190611d02565b50600101611c99565b5090565b90565b611cff91905b80821115611cfb57600081816101000a81549073ffffffffffffffffffffffffffffffffffffffff021916905550600101611cc5565b5090565b90565b50805460018160011615610100020316600290046000825580601f10611d285750611d47565b601f016020900490600052602060002090810190611d469190611c6e565b5b505600a165627a7a72305820e5a7ab77c0bd15d5be93cac4875dda3ec80bbdcbe4bfab666e2469335ddd462b0029",
  "source": "pragma solidity ^0.4.24;\r\n\r\nimport \"./Ownable.sol\";\r\n\r\ncontract VoteFactory is Ownable {\r\n    \r\n    struct Vote {\r\n        string question;\r\n        string[] answers;\r\n        State state;\r\n        address[] voters;\r\n        mapping (address => uint) voterToAnswer;\r\n    }\r\n\r\n    enum State {\r\n        Initial,\r\n        Started,\r\n        Stopped\r\n    }\r\n    \r\n    Vote[] public votes;\r\n    mapping (uint => address) voteToOwner;\r\n    \r\n\r\n    modifier onlyVoteOwner(uint _voteId) {\r\n        require(voteToOwner[_voteId] == msg.sender);\r\n        _;\r\n    }\r\n\r\n    modifier voteInitial(uint _voteId) {\r\n        require(votes[_voteId].state == State.Initial);\r\n        _;\r\n    }\r\n\r\n    modifier voteStarted(uint _voteId) {\r\n        require(votes[_voteId].state == State.Started);\r\n        _;\r\n    }\r\n\r\n    modifier voteStopped(uint _voteId) {\r\n        require(votes[_voteId].state == State.Stopped);\r\n        _;\r\n    }\r\n\r\n\r\n    function createVote(string _question) public {\r\n        uint voteId = votes.push(Vote(_question, new string[](0), State.Initial, new address[](0))) - 1;\r\n        voteToOwner[voteId] = msg.sender;\r\n    }\r\n\r\n    function setQuestion(uint _voteId, string _question)\r\n    public\r\n    onlyVoteOwner(_voteId)\r\n    voteInitial(_voteId) {\r\n        votes[_voteId].question = _question;\r\n    }\r\n    \r\n    function addAnswer(uint _voteId, string _answer)\r\n    public\r\n    onlyVoteOwner(_voteId)\r\n    voteInitial(_voteId) {\r\n        require(voteToOwner[_voteId] == msg.sender);\r\n        votes[_voteId].answers.push(_answer);\r\n    }\r\n\r\n    function setAnswer(uint _voteId, uint _answerId, string _answer)\r\n    public\r\n    onlyVoteOwner(_voteId)\r\n    voteInitial(_voteId) {\r\n        votes[_voteId].answers[_answerId] = _answer;\r\n    }\r\n\r\n    function startVote(uint _voteId)\r\n    public\r\n    onlyVoteOwner(_voteId)\r\n    voteInitial(_voteId) {\r\n        require(votes[_voteId].answers.length > 1);\r\n        votes[_voteId].state = State.Started;\r\n    }\r\n\r\n    function stopVote(uint _voteId)\r\n    public\r\n    onlyVoteOwner(_voteId)\r\n    voteStarted(_voteId) {\r\n        votes[_voteId].state = State.Stopped;\r\n    }\r\n    \r\n    function cast(uint _voteId, uint _answerId) public voteStarted(_voteId) {\r\n        for (uint i = 0; i < votes[_voteId].voters.length; i++) {\r\n            if (votes[_voteId].voters[i] == msg.sender) {\r\n                return;\r\n            }\r\n        }\r\n        votes[_voteId].voterToAnswer[msg.sender] = _answerId;\r\n        votes[_voteId].voters.push(msg.sender);\r\n    }\r\n\r\n    function _results(uint _voteId) internal view returns(uint, uint) {\r\n        require(votes[_voteId].voters.length > 0);\r\n        uint[] memory counts = new uint[](votes[_voteId].voters.length);\r\n        for (uint i = 0; i < votes[_voteId].voters.length; i++) {\r\n            counts[votes[_voteId].voterToAnswer[votes[_voteId].voters[i]]]++;\r\n        }\r\n        uint index = 0;\r\n        uint count = 0;\r\n        for (i = 0; i < counts.length; i++) {\r\n            if (counts[i] > counts[index]) {\r\n                index = i;\r\n                count = 0;\r\n            }\r\n            if (counts[i] == counts[index]) {\r\n                count++;\r\n            }\r\n        }\r\n        return (index, count);\r\n    }\r\n\r\n    function results(uint _voteId) public view returns(string) {\r\n        uint index;\r\n        uint count;\r\n        (index, count) = _results(_voteId);\r\n        if (count > 1) {\r\n            return \"It is impossible to determine, because multiple voting leaders\";\r\n        }\r\n        return votes[_voteId].answers[index];\r\n    }\r\n\r\n\r\n    function voteQuestion(uint _voteId) public view returns(string) {\r\n        return votes[_voteId].question;\r\n    }\r\n\r\n    function voteAnswer(uint _voteId, uint _answerId) public view returns(string) {\r\n        return votes[_voteId].answers[_answerId];\r\n    }\r\n\r\n    function voteState(uint _voteId) public view returns(State) {\r\n        return votes[_voteId].state;\r\n    }\r\n\r\n    function contractOwner() public view returns(address) {\r\n        return owner;\r\n    }\r\n\r\n    function voterAnswerId(address _voter, uint _voteId) public view returns(uint) {\r\n        return votes[_voteId].voterToAnswer[_voter];\r\n    }\r\n\r\n    function voterAddress(uint _voteId, uint _voterId) public view returns(address) {\r\n        return votes[_voteId].voters[_voterId];\r\n    }\r\n}\r\n",
  "sourcePath": "C:\\Users\\\\Desktop\\\\blockchain\\lab 2.0\\vote\\contracts\\VoteFactory.sol",
  "compiler": {
    "name": "solc",
    "version": "0.4.24+commit.e67f0147.Emscripten.clang"
  },
  "schemaVersion": "2.0.1",
  "updatedAt": "2018-07-17T10:10:19.305Z"
}