{
  "contractName": "VoteFactory",
  "abi": [
    {
      "constant": true,
      "inputs": [
        {
          "name": "",
          "type": "uint256"
        }
      ],
      "name": "votes",
      "outputs": [
        {
          "name": "question",
          "type": "string"
        },
        {
          "name": "state",
          "type": "uint8"
        }
      ],
      "payable": false,
      "stateMutability": "view",
      "type": "function"
    },
    {
      "constant": true,
      "inputs": [],
      "name": "owner",
      "outputs": [
        {
          "name": "",
          "type": "address"
        }
      ],
      "payable": false,
      "stateMutability": "view",
      "type": "function"
    },
    {
      "constant": false,
      "inputs": [
        {
          "name": "_newOwner",
          "type": "address"
        }
      ],
      "name": "transferOwnership",
      "outputs": [],
      "payable": false,
      "stateMutability": "nonpayable",
      "type": "function"
    },
    {
      "anonymous": false,
      "inputs": [
        {
          "indexed": true,
          "name": "previousOwner",
          "type": "address"
        },
        {
          "indexed": true,
          "name": "newOwner",
          "type": "address"
        }
      ],
      "name": "OwnershipTransferred",
      "type": "event"
    },
    {
      "constant": false,
      "inputs": [
        {
          "name": "_question",
          "type": "string"
        }
      ],
      "name": "createVote",
      "outputs": [],
      "payable": false,
      "stateMutability": "nonpayable",
      "type": "function"
    },
    {
      "constant": false,
      "inputs": [
        {
          "name": "_voteId",
          "type": "uint256"
        },
        {
          "name": "_answer",
          "type": "string"
        }
      ],
      "name": "addAnswer",
      "outputs": [],
      "payable": false,
      "stateMutability": "nonpayable",
      "type": "function"
    },
    {
      "constant": false,
      "inputs": [
        {
          "name": "_voteId",
          "type": "uint256"
        }
      ],
      "name": "startVote",
      "outputs": [],
      "payable": false,
      "stateMutability": "nonpayable",
      "type": "function"
    },
    {
      "constant": false,
      "inputs": [
        {
          "name": "_voteId",
          "type": "uint256"
        }
      ],
      "name": "stopVote",
      "outputs": [],
      "payable": false,
      "stateMutability": "nonpayable",
      "type": "function"
    },
    {
      "constant": true,
      "inputs": [
        {
          "name": "_voteId",
          "type": "uint256"
        }
      ],
      "name": "voteQuestion",
      "outputs": [
        {
          "name": "",
          "type": "string"
        }
      ],
      "payable": false,
      "stateMutability": "view",
      "type": "function"
    },
    {
      "constant": true,
      "inputs": [
        {
          "name": "_voteId",
          "type": "uint256"
        },
        {
          "name": "_answerId",
          "type": "uint256"
        }
      ],
      "name": "voteAnswer",
      "outputs": [
        {
          "name": "",
          "type": "string"
        }
      ],
      "payable": false,
      "stateMutability": "view",
      "type": "function"
    }
  ],
  "bytecode": "0x6080604052336000806101000a81548173ffffffffffffffffffffffffffffffffffffffff021916908373ffffffffffffffffffffffffffffffffffffffff160217905550610f47806100536000396000f300608060405260043610610099576000357c0100000000000000000000000000000000000000000000000000000000900463ffffffff16806313292a021461009e5780633f2205241461010757806343ab92b7146101345780635df81330146101615780636b7ea1251461021c5780637491995a146102cc5780638da5cb5b1461033f5780638edeacc014610396578063f2fde38b1461043c575b600080fd5b3480156100aa57600080fd5b50610105600480360381019080803590602001908201803590602001908080601f016020809104026020016040519081016040528093929190818152602001838380828437820191505050505050919291929050505061047f565b005b34801561011357600080fd5b50610132600480360381019080803590602001909291905050506105ca565b005b34801561014057600080fd5b5061015f60048036038101908080359060200190929190505050610700565b005b34801561016d57600080fd5b5061018c60048036038101908080359060200190929190505050610806565b60405180806020018360028111156101a057fe5b60ff168152602001828103825284818151815260200191508051906020019080838360005b838110156101e05780820151818401526020810190506101c5565b50505050905090810190601f16801561020d5780820380516001836020036101000a031916815260200191505b50935050505060405180910390f35b34801561022857600080fd5b5061025160048036038101908080359060200190929190803590602001909291905050506108de565b6040518080602001828103825283818151815260200191508051906020019080838360005b83811015610291578082015181840152602081019050610276565b50505050905090810190601f1680156102be5780820380516001836020036101000a031916815260200191505b509250505060405180910390f35b3480156102d857600080fd5b5061033d60048036038101908080359060200190929190803590602001908201803590602001908080601f01602080910402602001604051908101604052809392919081815260200183838082843782019150505050505091929192905050506109b8565b005b34801561034b57600080fd5b50610354610ada565b604051808273ffffffffffffffffffffffffffffffffffffffff1673ffffffffffffffffffffffffffffffffffffffff16815260200191505060405180910390f35b3480156103a257600080fd5b506103c160048036038101908080359060200190929190505050610aff565b6040518080602001828103825283818151815260200191508051906020019080838360005b838110156104015780820151818401526020810190506103e6565b50505050905090810190601f16801561042e5780820380516001836020036101000a031916815260200191505b509250505060405180910390f35b34801561044857600080fd5b5061047d600480360381019080803573ffffffffffffffffffffffffffffffffffffffff169060200190929190505050610bc1565b005b600060018060606040519081016040528085815260200160006040519080825280602002602001820160405280156104cb57816020015b60608152602001906001900390816104b65790505b508152602001600060028111156104de57fe5b815250908060018154018082558091505090600182039060005260206000209060030201600090919290919091506000820151816000019080519060200190610528929190610d22565b506020820151816001019080519060200190610545929190610da2565b5060408201518160020160006101000a81548160ff0219169083600281111561056a57fe5b02179055505050039050336002600083815260200190815260200160002060006101000a81548173ffffffffffffffffffffffffffffffffffffffff021916908373ffffffffffffffffffffffffffffffffffffffff1602179055505050565b80600060028111156105d857fe5b6001828154811015156105e757fe5b906000526020600020906003020160020160009054906101000a900460ff16600281111561061157fe5b14151561061d57600080fd5b3373ffffffffffffffffffffffffffffffffffffffff166002600084815260200190815260200160002060009054906101000a900473ffffffffffffffffffffffffffffffffffffffff1673ffffffffffffffffffffffffffffffffffffffff1614151561068a57600080fd5b6001808381548110151561069a57fe5b9060005260206000209060030201600101805490501115156106bb57600080fd5b600180838154811015156106cb57fe5b906000526020600020906003020160020160006101000a81548160ff021916908360028111156106f757fe5b02179055505050565b806001600281111561070e57fe5b60018281548110151561071d57fe5b906000526020600020906003020160020160009054906101000a900460ff16600281111561074757fe5b14151561075357600080fd5b3373ffffffffffffffffffffffffffffffffffffffff166002600084815260200190815260200160002060009054906101000a900473ffffffffffffffffffffffffffffffffffffffff1673ffffffffffffffffffffffffffffffffffffffff161415156107c057600080fd5b60026001838154811015156107d157fe5b906000526020600020906003020160020160006101000a81548160ff021916908360028111156107fd57fe5b02179055505050565b60018181548110151561081557fe5b9060005260206000209060030201600091509050806000018054600181600116156101000203166002900480601f0160208091040260200160405190810160405280929190818152602001828054600181600116156101000203166002900480156108c15780601f10610896576101008083540402835291602001916108c1565b820191906000526020600020905b8154815290600101906020018083116108a457829003601f168201915b5050505050908060020160009054906101000a900460ff16905082565b60606001838154811015156108ef57fe5b90600052602060002090600302016001018281548110151561090d57fe5b906000526020600020018054600181600116156101000203166002900480601f0160208091040260200160405190810160405280929190818152602001828054600181600116156101000203166002900480156109ab5780601f10610980576101008083540402835291602001916109ab565b820191906000526020600020905b81548152906001019060200180831161098e57829003601f168201915b5050505050905092915050565b81600060028111156109c657fe5b6001828154811015156109d557fe5b906000526020600020906003020160020160009054906101000a900460ff1660028111156109ff57fe5b141515610a0b57600080fd5b3373ffffffffffffffffffffffffffffffffffffffff166002600085815260200190815260200160002060009054906101000a900473ffffffffffffffffffffffffffffffffffffffff1673ffffffffffffffffffffffffffffffffffffffff16141515610a7857600080fd5b600183815481101515610a8757fe5b9060005260206000209060030201600101829080600181540180825580915050906001820390600052602060002001600090919290919091509080519060200190610ad3929190610e02565b5050505050565b6000809054906101000a900473ffffffffffffffffffffffffffffffffffffffff1681565b6060600182815481101515610b1057fe5b90600052602060002090600302016000018054600181600116156101000203166002900480601f016020809104026020016040519081016040528092919081815260200182805460018160011615610100020316600290048015610bb55780601f10610b8a57610100808354040283529160200191610bb5565b820191906000526020600020905b815481529060010190602001808311610b9857829003601f168201915b50505050509050919050565b6000809054906101000a900473ffffffffffffffffffffffffffffffffffffffff1673ffffffffffffffffffffffffffffffffffffffff163373ffffffffffffffffffffffffffffffffffffffff16141515610c1c57600080fd5b610c2581610c28565b50565b600073ffffffffffffffffffffffffffffffffffffffff168173ffffffffffffffffffffffffffffffffffffffff1614151515610c6457600080fd5b8073ffffffffffffffffffffffffffffffffffffffff166000809054906101000a900473ffffffffffffffffffffffffffffffffffffffff1673ffffffffffffffffffffffffffffffffffffffff167f8be0079c531659141344cd1fd0a4f28419497f9722a3daafe3b4186f6b6457e060405160405180910390a3806000806101000a81548173ffffffffffffffffffffffffffffffffffffffff021916908373ffffffffffffffffffffffffffffffffffffffff16021790555050565b828054600181600116156101000203166002900490600052602060002090601f016020900481019282601f10610d6357805160ff1916838001178555610d91565b82800160010185558215610d91579182015b82811115610d90578251825591602001919060010190610d75565b5b509050610d9e9190610e82565b5090565b828054828255906000526020600020908101928215610df1579160200282015b82811115610df0578251829080519060200190610de0929190610d22565b5091602001919060010190610dc2565b5b509050610dfe9190610ea7565b5090565b828054600181600116156101000203166002900490600052602060002090601f016020900481019282601f10610e4357805160ff1916838001178555610e71565b82800160010185558215610e71579182015b82811115610e70578251825591602001919060010190610e55565b5b509050610e7e9190610e82565b5090565b610ea491905b80821115610ea0576000816000905550600101610e88565b5090565b90565b610ed091905b80821115610ecc5760008181610ec39190610ed3565b50600101610ead565b5090565b90565b50805460018160011615610100020316600290046000825580601f10610ef95750610f18565b601f016020900490600052602060002090810190610f179190610e82565b5b505600a165627a7a72305820e2bfd98f71b7eda5da41380042bad42e4c0be4fede12d776d593b15db248dd5e0029",
  "source": "pragma solidity ^0.4.19;\r\n\r\nimport \"./Ownable.sol\";\r\n\r\ncontract VoteFactory is Ownable{\r\n    \r\n    struct Vote {\r\n        string question;\r\n        string[] answers;\r\n        State state;\r\n    }\r\n\r\n    enum State {\r\n        Initial,\r\n        Started,\r\n        Stopped\r\n    }\r\n    \r\n    Vote[] public votes;\r\n    mapping (uint => address) voteToOwner;\r\n    \r\n\r\n    modifier voteInitial(uint _voteId) {\r\n        require(votes[_voteId].state == State.Initial);\r\n        _;\r\n    }\r\n\r\n    modifier voteStarted(uint _voteId) {\r\n        require(votes[_voteId].state == State.Started);\r\n        _;\r\n    }\r\n\r\n    modifier voteStopped(uint _voteId) {\r\n        require(votes[_voteId].state == State.Stopped);\r\n        _;\r\n    }\r\n\r\n\r\n    function createVote(string _question) public {\r\n        uint voteId = votes.push(Vote(_question, new string[](0), State.Initial)) - 1;\r\n        voteToOwner[voteId] = msg.sender;\r\n    }\r\n    \r\n    function addAnswer(uint _voteId, string _answer) public voteInitial(_voteId) {\r\n        require(voteToOwner[_voteId] == msg.sender);\r\n        votes[_voteId].answers.push(_answer);\r\n    }\r\n\r\n    function startVote(uint _voteId) public voteInitial(_voteId) {\r\n        require(voteToOwner[_voteId] == msg.sender);\r\n        require(votes[_voteId].answers.length > 1);\r\n        votes[_voteId].state = State.Started;\r\n    }\r\n\r\n    function stopVote(uint _voteId) public voteStarted(_voteId) {\r\n        require(voteToOwner[_voteId] == msg.sender);\r\n        votes[_voteId].state = State.Stopped;\r\n    }\r\n\r\n\r\n    function voteQuestion(uint _voteId) public view returns(string) {\r\n        return votes[_voteId].question;\r\n    }\r\n\r\n    function voteAnswer(uint _voteId, uint _answerId) public view returns(string) {\r\n        return votes[_voteId].answers[_answerId];\r\n    }\r\n}\r\n",
  "sourcePath": "C:\\Users\\Ольга\\Desktop\\всёНеобходимое\\blockchain\\lab 2.0\\vote\\contracts\\VoteFactory.sol",
  "compiler": {
    "name": "solc",
    "version": "0.4.24+commit.e67f0147.Emscripten.clang"
  },
  "schemaVersion": "2.0.1",
  "updatedAt": "2018-07-11T17:47:28.044Z"
}